:100000000EC028C027C026C025C024C023C022C0DF
:1000100021C020C01FC01EC01DC01CC01BC0112499
:100020001FBECFE5D2E0DEBFCDBF10E0A0E6B0E05E
:10003000EEE7F6E002C005900D92A636B107D9F7BB
:1000400020E0A6E6B0E001C01D92AA36B207E1F7B3
:10005000BCD113C3D5CF8F929F92AF92CF92DF9234
:10006000EF92FF920F931F931F928EE28F931F9236
:100070008DE28F931F928FE28F9383E08F931F9275
:1000800086E38F931F9288E38F9387E3882E912CCA
:10009000A12C96E3C92ED12C28E3E22EF12C07E304
:1000A00010E022E046E350E068E370E087E390E090
:1000B000B4D064E070E015D02DB73EB7255F3F4F58
:1000C0000FB6F8943EBF0FBE2DBF62ED74E01F91D6
:1000D0000F91FF90EF90DF90CF90AF909F908F9017
:1000E00034C0EF92FF920F931F93CF93DF93EC01F5
:1000F0007B0184E090E0A0D18C01FC01D183C0831E
:10010000F382E282CE01DFD047E06BE0CE0104D182
:100110004FEF69E0CE0100D147E06AE0CE01FCD0AC
:1001200040E06FE0CE01F8D041E06CE0CE01F4D0C9
:10013000C801DF91CF911F910F91FF90EF9008952B
:100140006F5FFC0180819181E7C0DF92EF92FF92A7
:100150000F931F93CF93DF938C01CB01F801C281E2
:10016000C1502AE0E22EF12C009761F0B7013DD199
:10017000D62ED72F482F6C2FC801E2DF8D2D9D2F53
:10018000C150F2CFDF91CF911F910F91FF90EF906F
:10019000DF900895FC01A281B3812C9181E090E071
:1001A000068002C0880F991F0A94E2F78095822387
:1001B0008C93A589B6896C93A18DB28D80EF8C93B9
:1001C00021E030E087E88A95F1F70000A789B08D3B
:1001D0008C9181608C93A481B581A901068002C0B5
:1001E000440F551F0A94E2F78C9190E084239523E5
:1001F000892BD1F388EE93E00197F1F7A789B08DB1
:100200008C9181608C93A18DB28D8C9186FFDACF19
:1002100097E89A95F1F7000008952F923F924F9238
:100220005F926F927F928F929F92AF92BF92CF9286
:10023000DF92EF92FF920F931F93CF93DF93CDB78F
:10024000DEB72C013B011A01B22E8BE190E0F4D015
:10025000FC01518240827382628235822482B6829E
:1002600010870783F286E186D486C386A5869786A3
:1002700086868D899E89918B808B8F89988D938BB3
:10028000828B898D848B8A8D9B8D968B858B8C8DB3
:100290009D8D908F878B8E8D9F8D928F818FCF01BB
:1002A000DF91CF911F910F91FF90EF90DF90CF9052
:1002B000BF90AF909F908F907F906F905F904F9086
:1002C0003F902F900895FC01BB9AA081B1814C9181
:1002D00081E090E09C01068002C0220F331F0A9447
:1002E000E2F7242B2C93A781B0852C91058402C0C2
:1002F000880F991F0A94E2F7822B8C93A589B689FF
:100300008FEF8C93A789B08D8AE28C93018CF28D4C
:10031000E02D80EF808308951F93CF93DF93EC014E
:10032000142FC398EA81FB81208181E090E00E8048
:1003300002C0880F991F0A94E2F7822B808341E064
:1003400050E0EC81FD81808190E00E8002C09595A7
:1003500087950A94E2F780FD0FC0E985FA859081C0
:100360009A010D8402C0220F331F0A94E2F7822FF4
:10037000809589238083E5CF87E88A95F1F700008F
:10038000EA81FB81308181E090E0AC010E8002C007
:10039000440F551F0A94E2F7242F2095232320832E
:1003A000E985FA8520810D8402C0880F991F0A947F
:1003B000E2F7822B8083CE01EDDE612FCE01EADEF3
:1003C000C39ADF91CF911F910895BC9A44DE90E1CA
:1003D00088B3892788BB2FE936E881E02150304077
:1003E0008040E1F700C00000F3CF97FB072E16F422
:1003F000009406D077FD08D00BD007FC05D03EF462
:10040000909581959F4F0895709561957F4F0895C0
:10041000AA1BBB1B51E107C0AA1FBB1FA617B7072A
:1004200010F0A61BB70B881F991F5A95A9F7809546
:100430009095BC01CD0108950F931F93CF93DF9347
:100440008230910510F482E090E0E0916800F09134
:10045000690020E030E0A0E0B0E0309719F1408181
:1004600051810281138148175907C8F084179507F5
:1004700069F4109731F012960C93129713961C930F
:1004800027C0009368001093690022C02115310530
:1004900019F04217530718F49A01BD01EF01DF016B
:1004A000F801DBCF21153105F9F0281B390B243079
:1004B000310580F48A819B816115710521F0FB0172
:1004C0009383828304C09093690080936800FE0147
:1004D000329644C0FE01E20FF31F819391932250A4
:1004E0003109398328833AC0209166003091670032
:1004F000232B41F420916200309163003093670018
:100500002093660020916000309161002115310533
:1005100041F42DB73EB74091640050916500241B13
:10052000350BE0916600F0916700E217F307A0F445
:100530002E1B3F0B2817390778F0AC014E5F5F4F39
:100540002417350748F04E0F5F1F50936700409304
:1005500066008193919302C0E0E0F0E0CF01DF916B
:10056000CF911F910F910895CF93DF93009709F4D6
:1005700081C0FC01329713821282A0916800B09171
:100580006900109781F420813181820F931F20919F
:100590006600309167002817390751F5F09367001E
:1005A000E093660067C0ED0120E030E0CE17DF0782
:1005B00040F44A815B819E0141155105F1F0EA0149
:1005C000F5CFD383C28340815181840F951FC81713
:1005D000D90759F488819981840F951F02969183D8
:1005E00080838A819B81938382832115310529F43D
:1005F000F0936900E09368003DC0E901FB83EA8362
:1006000049915991C40FD51FEC17FD0761F4808102
:100610009181840F951F0296E901998388838281D5
:1006200093819B838A83E0E0F0E012968D919C9108
:100630001397009719F0FD01DC01F7CF8D919C9184
:1006400011979D012E5F3F4F820F931F20916600EF
:10065000309167002817390769F4309729F4109210
:1006600069001092680002C013821282B093670082
:0E067000A0936600DF91CF910895F894FFCF1C
:06067E0000006A002000EC
:00000001FF
