S0180000536576656E5365676D656E74546573742E7372656398
S11300000EC028C027C026C025C024C023C022C0DB
S113001021C020C01FC01EC01DC01CC01BC0112495
S11300201FBECFE5D2E0DEBFCDBF10E0A0E6B0E05A
S1130030ECE2F7E002C005900D92A636B107D9F7BD
S113004020E0A6E6B0E001C01D92AA36B207E1F7AF
S113005013D26AC3D5CF1F928EE28F931F928DE283
S11300608F931F928FE28F9383E08F931F9286E387
S11300708F931F9288E38F930F2EF7E38F2E912C8B
S1130080F02DA12C0F2EF6E3CF2ED12CF02D0F2E18
S1130090F8E3EF2EF12CF02D07E310E022E046E325
S11300A050E068E370E087E390E0DDD064E070E066
S11300B017D08C018DB79EB70B960FB6F8949EBFE0
S11300C00FBE8DBF60E070E0EB012196C80144D003
S11300D087EA91E60197F1F700C00000BE01F4CF72
S11300E0EF92FF920F931F93CF93DF93EC017B0169
S11300F084E090E0F8D18C01FC01D183C083F382C9
S1130100E282CE0106D147E06BE0CE0136D14FEF5B
S113011069E0CE0132D147E06AE0CE012ED140E061
S11301206FE0CE012AD141E06CE0CE0126D1C801B6
S1130130DF91CF911F910F91FF90EF9008956F5F22
S1130140FC018081918119D108956F5F4FE0FC011A
S11301508081918112D10895CF92DF92EF92FF9224
S11301600F931F93CF93DF938C01CB01F801C281CE
S1130170D3812197009791F00F2EFAE0CF2ED12C46
S1130180F02DB60189D1E62EF72E482F6C2FC80129
S1130190D6DF8E2D9F2D2197009799F7DD232CF024
S11301A06C2FC801D2DF2197D8F7DF91CF911F912F
S11301B00F91FF90EF90DF90CF900895DC0112969D
S11301C0ED91FC911397208181E090E016960C90BC
S11301D0169702C0880F991F0A94E2F7809582232C
S11301E080835596ED91FC91569760835996ED91D5
S11301F0FC915A9780EF808361E070E087E88A95EC
S1130200F1F700005796ED91FC9158978081816039
S113021080831496ED91FC911597AB0116960C9082
S1130220169702C0440F551F0A94E2F7208130E06C
S113023024233523232BD1F388EE93E00197F1F7A0
S11302405796ED91FC9158978081816080835996EF
S1130250ED91FC915A97808186FFD0CF97E89A95CB
S1130260F1F7000008952F923F924F925F926F92A0
S11302707F928F929F92AF92BF92CF92DF92EF9232
S1130280FF920F931F93CF93DF93CDB7DEB72C016B
S11302903B011A01B22E8BE190E025D1FC01518281
S11302A040827382628235822482B68210870783F9
S11302B0F286E186D486C386A586978686868D894E
S11302C09E89918B808B8F89988D938B828B898D5E
S11302D0848B8A8D9B8D968B858B8C8D9D8D908F39
S11302E0878B8E8D9F8D928F818FCF01DF91CF91E0
S11302F01F910F91FF90EF90DF90CF90BF90AF9040
S11303009F908F907F906F905F904F903F902F9031
S11303100895FC01A685B7854C9181E090E09C018D
S1130320048802C0220F331F0A94E2F7242B2C9373
S1130330A081B1814C919C01068002C0220F331F21
S11303400A94E2F7242B2C93A781B0852C91058481
S113035002C0880F991F0A94E2F7822B8C93A58917
S1130360B6898FEF8C93A789B08D8AE28C93018C28
S1130370F28DE02D80EF80830895EF92FF921F931A
S1130380CF93DF93EC01142FE889F989308181E060
S113039090E0AC010C8802C0440F551F0A94E2F7A8
S11303A0242F209523232083EA81FB8120810E8042
S11303B002C0880F991F0A94E2F7822B8083EC8194
S11303C0FD81808190E00E8002C0959587950A9406
S11303D0E2F780FD1CC041E050E0E985FA85908198
S11303E09A010D8402C0220F331F0A94E2F7822F70
S11303F0809589238083EC81FD81808190E00E804B
S113040002C0959587950A94E2F780FFE6CF87E8C6
S11304108A95F1F70000EA81FB819081EE24E39450
S1130420F12C97010E8002C0220F331F0A94E2F7C9
S1130430822F809589238083E985FA852081C701ED
S11304400D8402C0880F991F0A94E2F7822B8083DF
S1130450CE01B4DE612FCE01B1DE88B30C8802C0B8
S1130460EE0CFF1C0A94E2F7E82AE8BADF91CF9178
S11304701F91FF90EF900895BC9AEDDD90E188B351
S1130480892788BB2FE936E881E02150304080403D
S1130490E1F700C00000F3CF97FB072E16F4009499
S11304A006D077FD08D00BD007FC05D03EF490951C
S11304B081959F4F0895709561957F4F0895AA1B6C
S11304C0BB1B51E107C0AA1FBB1FA617B70710F03B
S11304D0A61BB70B881F991F5A95A9F7809590956D
S11304E0BC01CD0108950F931F93CF93DF93823006
S11304F0910510F482E090E0E0916800F0916900C9
S113050020E030E0A0E0B0E0309719F14081518163
S11305100281138148175907C8F08417950769F4B5
S1130520109731F012960C93129713961C9327C0D0
S1130530009368001093690022C02115310519F059
S11305404217530718F49A01BD01EF01DF01F801C6
S1130550DBCF21153105F9F0281B390B2430310587
S113056080F48A819B816115710521F0FB019383DD
S1130570828304C09093690080936800FE013296E0
S113058044C0FE01E20FF31F81939193225031097D
S1130590398328833AC02091660030916700232B69
S11305A041F42091620030916300309367002093FE
S11305B0660020916000309161002115310541F4FD
S11305C02DB73EB74091640050916500241B350B54
S11305D0E0916600F0916700E217F307A0F42E1B88
S11305E03F0B2817390778F0AC014E5F5F4F241793
S11305F0350748F04E0F5F1F509367004093660025
S11306008193919302C0E0E0F0E0CF01DF91CF91BC
S11306101F910F910895CF93DF93009709F481C040
S1130620FC01329713821282A0916800B091690094
S1130630109781F420813181820F931F20916600ED
S1130640309167002817390751F5F0936700E0935C
S1130650660067C0ED0120E030E0CE17DF0740F40C
S11306604A815B819E0141155105F1F0EA01F5CF04
S1130670D383C28340815181840F951FC817D90742
S113068059F488819981840F951F02969183808300
S11306908A819B81938382832115310529F4F09308
S11306A06900E09368003DC0E901FB83EA83499156
S11306B05991C40FD51FEC17FD0761F48081918116
S11306C0840F951F0296E90199838883828193811F
S11306D09B838A83E0E0F0E012968D919C911397BE
S11306E0009719F0FD01DC01F7CF8D919C911197D2
S11306F09D012E5F3F4F820F931F20916600309122
S113070067002817390769F4309729F410926900B3
S11307101092680002C013821282B0936700A09303
S10F07206600DF91CF910895F894FFCF9C
S109072C00006A00200039
S9030000FC
