:100000000EC028C027C026C025C024C023C022C0DF
:1000100021C020C01FC01EC01DC01CC01BC0112499
:100020001FBECFE5D2E0DEBFCDBF10E0A0E6B0E05E
:10003000E4E7F7E002C005900D92A636B107D9F7C4
:1000400020E0A6E6B0E001C01D92AA36B207E1F7B3
:1000500045D28EC3D5CF21E046E350E068E370E09F
:1000600087E390E014D1EC0180D1CE012ED122E0C3
:1000700046E350E068E370E087E390E008D16C016C
:1000800020E046E350E068E370E087E390E0FFD0D3
:100090005C0124E046E350E068E370E087E390E031
:1000A000F6D00F2EFEE2EF2EF12CF02D0DE210E037
:1000B0002FE230E0AC01B501C6019AD164E070E0F6
:1000C00016D08C0180E090E0D1D062E0C8016AD007
:1000D00080E090E0D1D0BC01C80196D0CE011DD106
:1000E00087EA91E60197F1F700C00000F1CFEF92A7
:1000F000FF920F931F93CF93DF93EC017B0187E077
:1001000090E015D28C01FC01D183C083F382E2829E
:10011000C7010DD2F801958384831682CE0195D153
:1001200047E06BE0CE01AFD14FEF69E0CE01ABD13C
:1001300047E06AE0CE01A7D140E06FE0CE01A3D155
:1001400041E06CE0CE019FD1C801DF91CF911F91BA
:100150000F91FF90EF9008950F931F93CF93DF932C
:100160008C01D62FC42FDC0116968C9190E002C032
:10017000959587956A95E2F780FDC05861E06D0F0F
:100180004C2FF801808191817ED1D8011496ED9198
:10019000FC911597ED0FF11DC083DF91CF911F9159
:1001A0000F91089521E030E0062E02C0220F331F88
:1001B0000A94E2F7DC0116963C911697232B1696CB
:1001C0002C9316971496ED91FC911597E60FF11D5F
:1001D0004081C2DF08950F931F93CF938C01C62FE8
:1001E00061E06C0F4FE0DC018D919C914CD1D80106
:1001F0001496ED91FC911597EC0FF11D8AE0808328
:10020000CF911F910F910895CF92DF92EF92FF92BD
:100210000F931F93CF93DF938C01CB01F801C28121
:10022000D3812197009791F00F2EFAE0CF2ED12C99
:10023000F02DB60155D1E62EF72E482F6C2FC801B0
:100240008BDF8E2D9F2D2197009799F7DD232CF0C2
:100250006C2FC801C0DF2197D8F7DF91CF911F9194
:100260000F91FF90EF90DF90CF90089587B1836852
:1002700087B9379A33980895369A3699FECF24B1C4
:1002800085B190E0982F8827820F911D0895CF9215
:10029000DF92EF92FF920F931F93CF936C017B013C
:1002A0008A01C22F87E090E042D1FC01D182C08256
:1002B000F382E28215830483C683CF911F910F914D
:1002C000FF90EF90DF90CF900895DC011296ED91B2
:1002D000FC911397408121E030E0B90116960C9013
:1002E00002C0660F771F0A94E2F7CB018095842342
:1002F00080830895DC011296ED91FC911397408163
:1003000021E030E0C90116960C9002C0880F991FB9
:100310000A94E2F7842B80830895DC011296ED9114
:10032000FC911397408121E030E0C90116960C90B2
:1003300002C0880F991F0A94E2F7842780830895EA
:10034000DC011496ED91FC91159721E030E01696B2
:100350000C9002C0220F331F0A94E2F7808190E0D4
:1003600082239323892BD1F30895DC01ED91FC9135
:100370001197408121E030E0C90116960C9002C02F
:10038000880F991F0A94E2F7842B808308951F93A6
:10039000CF93DF93EC01162F8881998196DFEE8150
:1003A000FF811083EA85FB8580EF808387E88A954B
:1003B000F1F70000E885F98580818160808388817C
:1003C0009981BEDF88EE93E00197F1F7E885F98522
:1003D000808181608083EA85FB85808186FFE6CF0E
:1003E00097E89A95F1F70000DF91CF911F9108955A
:1003F0008F929F92AF92BF92CF92DF92EF92FF9235
:100400000F931F93CF93DF934C015B016A01E901C6
:100410008CE090E08CD0FC0191828082B382A28239
:10042000D582C482D783C68311870087F386E2868C
:10043000DF91CF911F910F91FF90EF90DF90CF90C0
:10044000BF90AF909F908F900895CF93DF93EC0172
:10045000888199818ADF8A819B8187DF8C819D8158
:1004600084DF8C819D8146DFEE81FF818FEF808369
:10047000E885F9858AE28083EA85FB8580EF8083C1
:10048000DF91CF9108950F931F93CF93DF93EC01EA
:10049000062F142F8C819D8118DF888199812ADF96
:1004A000888199814DDF8A819B810FDF87E88A955A
:1004B000F1F700008881998108DF8A819B811ADF2A
:1004C000602FCE0164DF612FCE0161DF8C819D81C1
:1004D00011DFDF91CF911F910F910895BCDDFFCF08
:1004E00097FB072E16F4009406D077FD08D00BD0AA
:1004F00007FC05D03EF4909581959F4F0895709527
:1005000061957F4F0895AA1BBB1B51E107C0AA1F2D
:10051000BB1FA617B70710F0A61BB70B881F991FA4
:100520005A95A9F780959095BC01CD0108950F9338
:100530001F93CF93DF938230910510F482E090E017
:10054000E0916800F091690020E030E0A0E0B0E0C8
:10055000309719F140815181028113814817590761
:10056000C8F08417950769F4109731F012960C9330
:10057000129713961C9327C000936800109369008C
:1005800022C02115310519F04217530718F49A01BA
:10059000BD01EF01DF01F801DBCF21153105F9F0D5
:1005A000281B390B2430310580F48A819B81611529
:1005B000710521F0FB019383828304C0909369004D
:1005C00080936800FE01329644C0FE01E20FF31FE3
:1005D0008193919322503109398328833AC0209125
:1005E000660030916700232B41F420916200309126
:1005F0006300309367002093660020916000309183
:1006000061002115310541F42DB73EB740916400DA
:1006100050916500241B350BE0916600F091670056
:10062000E217F307A0F42E1B3F0B2817390778F0C9
:10063000AC014E5F5F4F2417350748F04E0F5F1F28
:1006400050936700409366008193919302C0E0E06D
:10065000F0E0CF01DF91CF911F910F910895CF93DB
:10066000DF93009709F481C0FC0132971382128254
:10067000A0916800B0916900109781F420813181C8
:10068000820F931F20916600309167002817390769
:1006900051F5F0936700E093660067C0ED0120E03C
:1006A00030E0CE17DF0740F44A815B819E0141159F
:1006B0005105F1F0EA01F5CFD383C2834081518126
:1006C000840F951FC817D90759F488819981840F21
:1006D000951F0296918380838A819B819383828375
:1006E0002115310529F4F0936900E09368003DC0BD
:1006F000E901FB83EA8349915991C40FD51FEC1797
:10070000FD0761F480819181840F951F0296E901B4
:1007100099838883828193819B838A83E0E0F0E0E0
:1007200012968D919C911397009719F0FD01DC01B1
:10073000F7CF8D919C9111979D012E5F3F4F820FB6
:10074000931F20916600309167002817390769F4DC
:10075000309729F4109269001092680002C0138249
:100760001282B0936700A0936600DF91CF91089545
:04077000F894FFCF2B
:0607740000006A002000F5
:00000001FF
